{
  "_format": "hh-sol-artifact-1",
  "contractName": "Raffle",
  "sourceName": "contracts/Raffle.sol",
  "abi": [
    {
      "inputs": [
        {
          "internalType": "uint256",
          "name": "entraceFee",
          "type": "uint256"
        },
        {
          "internalType": "uint256",
          "name": "interval",
          "type": "uint256"
        },
        {
          "internalType": "address",
          "name": "vrfCoordinatorV2",
          "type": "address"
        },
        {
          "internalType": "bytes32",
          "name": "gasLane",
          "type": "bytes32"
        },
        {
          "internalType": "uint64",
          "name": "subscriptionId",
          "type": "uint64"
        },
        {
          "internalType": "uint32",
          "name": "callbackGasLimit",
          "type": "uint32"
        }
      ],
      "stateMutability": "nonpayable",
      "type": "constructor"
    },
    {
      "inputs": [
        {
          "internalType": "address",
          "name": "have",
          "type": "address"
        },
        {
          "internalType": "address",
          "name": "want",
          "type": "address"
        }
      ],
      "name": "OnlyCoordinatorCanFulfill",
      "type": "error"
    },
    {
      "inputs": [],
      "name": "Raffle__RaffleNotOpen",
      "type": "error"
    },
    {
      "inputs": [],
      "name": "Raffle__SendMoreToEnterRaffle",
      "type": "error"
    },
    {
      "inputs": [],
      "name": "Raffle__TransferFailed",
      "type": "error"
    },
    {
      "inputs": [],
      "name": "Raffle__UpkeepNotNeeded",
      "type": "error"
    },
    {
      "anonymous": false,
      "inputs": [
        {
          "indexed": true,
          "internalType": "address",
          "name": "player",
          "type": "address"
        }
      ],
      "name": "RaffleEnter",
      "type": "event"
    },
    {
      "anonymous": false,
      "inputs": [
        {
          "indexed": true,
          "internalType": "uint256",
          "name": "requestId",
          "type": "uint256"
        }
      ],
      "name": "RequestRaffleWinner",
      "type": "event"
    },
    {
      "anonymous": false,
      "inputs": [
        {
          "indexed": true,
          "internalType": "address",
          "name": "winner",
          "type": "address"
        }
      ],
      "name": "WinnerPicked",
      "type": "event"
    },
    {
      "inputs": [],
      "name": "NUM_WORDS",
      "outputs": [
        {
          "internalType": "uint16",
          "name": "",
          "type": "uint16"
        }
      ],
      "stateMutability": "view",
      "type": "function"
    },
    {
      "inputs": [],
      "name": "REQUEST_CONFIRMATIONS",
      "outputs": [
        {
          "internalType": "uint16",
          "name": "",
          "type": "uint16"
        }
      ],
      "stateMutability": "view",
      "type": "function"
    },
    {
      "inputs": [
        {
          "internalType": "bytes",
          "name": "",
          "type": "bytes"
        }
      ],
      "name": "checkUpKeep",
      "outputs": [
        {
          "internalType": "bool",
          "name": "upkeepNeeded",
          "type": "bool"
        },
        {
          "internalType": "bytes",
          "name": "",
          "type": "bytes"
        }
      ],
      "stateMutability": "view",
      "type": "function"
    },
    {
      "inputs": [],
      "name": "enterRaffle",
      "outputs": [],
      "stateMutability": "payable",
      "type": "function"
    },
    {
      "inputs": [],
      "name": "i_callbackGasLimit",
      "outputs": [
        {
          "internalType": "uint32",
          "name": "",
          "type": "uint32"
        }
      ],
      "stateMutability": "view",
      "type": "function"
    },
    {
      "inputs": [],
      "name": "i_entranceFee",
      "outputs": [
        {
          "internalType": "uint256",
          "name": "",
          "type": "uint256"
        }
      ],
      "stateMutability": "view",
      "type": "function"
    },
    {
      "inputs": [],
      "name": "i_gasLane",
      "outputs": [
        {
          "internalType": "bytes32",
          "name": "",
          "type": "bytes32"
        }
      ],
      "stateMutability": "view",
      "type": "function"
    },
    {
      "inputs": [],
      "name": "i_interval",
      "outputs": [
        {
          "internalType": "uint256",
          "name": "",
          "type": "uint256"
        }
      ],
      "stateMutability": "view",
      "type": "function"
    },
    {
      "inputs": [],
      "name": "i_subscriptionId",
      "outputs": [
        {
          "internalType": "uint64",
          "name": "",
          "type": "uint64"
        }
      ],
      "stateMutability": "view",
      "type": "function"
    },
    {
      "inputs": [],
      "name": "i_vrfCoordinator",
      "outputs": [
        {
          "internalType": "contract VRFCoordinatorV2Interface",
          "name": "",
          "type": "address"
        }
      ],
      "stateMutability": "view",
      "type": "function"
    },
    {
      "inputs": [
        {
          "internalType": "bytes",
          "name": "",
          "type": "bytes"
        }
      ],
      "name": "performUpkeep",
      "outputs": [],
      "stateMutability": "nonpayable",
      "type": "function"
    },
    {
      "inputs": [
        {
          "internalType": "uint256",
          "name": "requestId",
          "type": "uint256"
        },
        {
          "internalType": "uint256[]",
          "name": "randomWords",
          "type": "uint256[]"
        }
      ],
      "name": "rawFulfillRandomWords",
      "outputs": [],
      "stateMutability": "nonpayable",
      "type": "function"
    },
    {
      "inputs": [],
      "name": "s_lastTimeStamp",
      "outputs": [
        {
          "internalType": "uint256",
          "name": "",
          "type": "uint256"
        }
      ],
      "stateMutability": "view",
      "type": "function"
    },
    {
      "inputs": [
        {
          "internalType": "uint256",
          "name": "",
          "type": "uint256"
        }
      ],
      "name": "s_players",
      "outputs": [
        {
          "internalType": "address payable",
          "name": "",
          "type": "address"
        }
      ],
      "stateMutability": "view",
      "type": "function"
    },
    {
      "inputs": [],
      "name": "s_raffleState",
      "outputs": [
        {
          "internalType": "enum Raffle.RaffleState",
          "name": "",
          "type": "uint8"
        }
      ],
      "stateMutability": "view",
      "type": "function"
    },
    {
      "inputs": [],
      "name": "s_recentWinner",
      "outputs": [
        {
          "internalType": "address",
          "name": "",
          "type": "address"
        }
      ],
      "stateMutability": "view",
      "type": "function"
    }
  ],
  "bytecode": "0x6101006040523480156200001257600080fd5b50604051620019633803806200196383398181016040528101906200003891906200018f565b838073ffffffffffffffffffffffffffffffffffffffff1660808173ffffffffffffffffffffffffffffffffffffffff1660601b81525050508560a081815250508460c08181525050426000819055508373ffffffffffffffffffffffffffffffffffffffff1660e08173ffffffffffffffffffffffffffffffffffffffff1660601b815250508260038190555081600460006101000a81548167ffffffffffffffff021916908367ffffffffffffffff16021790555080600460086101000a81548163ffffffff021916908363ffffffff1602179055505050505050506200031e565b6000815190506200012d816200029c565b92915050565b6000815190506200014481620002b6565b92915050565b6000815190506200015b81620002d0565b92915050565b6000815190506200017281620002ea565b92915050565b600081519050620001898162000304565b92915050565b60008060008060008060c08789031215620001af57620001ae62000297565b5b6000620001bf89828a016200014a565b9650506020620001d289828a016200014a565b9550506040620001e589828a016200011c565b9450506060620001f889828a0162000133565b93505060806200020b89828a0162000178565b92505060a06200021e89828a0162000161565b9150509295509295509295565b6000620002388262000249565b9050919050565b6000819050919050565b600073ffffffffffffffffffffffffffffffffffffffff82169050919050565b6000819050919050565b600063ffffffff82169050919050565b600067ffffffffffffffff82169050919050565b600080fd5b620002a7816200022b565b8114620002b357600080fd5b50565b620002c1816200023f565b8114620002cd57600080fd5b50565b620002db8162000269565b8114620002e757600080fd5b50565b620002f58162000273565b81146200030157600080fd5b50565b6200030f8162000283565b81146200031b57600080fd5b50565b60805160601c60a05160c05160e05160601c6115e96200037a6000396000818161066001526109330152600081816107cf015261087b01526000818161046a01526108a40152600081816103aa01526103fe01526115e96000f3fe6080604052600436106100f35760003560e01c806372cf6e341161008a578063ae771f6b11610059578063ae771f6b146102ea578063aebc455014610327578063cc45483f14610352578063d757d0271461037d576100f3565b806372cf6e341461023e5780637ea3e6c1146102695780638638b0c6146102945780638e879c8a146102bf576100f3565b8063470cdf97116100c6578063470cdf971461017f5780635e6c102e146101aa57806367f082b0146101e85780636919207d14610213576100f3565b80631fe543e3146100f85780632cfcc53914610121578063348540431461012b5780634585e33b14610156575b600080fd5b34801561010457600080fd5b5061011f600480360381019061011a9190610ed6565b6103a8565b005b610129610468565b005b34801561013757600080fd5b506101406105d7565b60405161014d9190611196565b60405180910390f35b34801561016257600080fd5b5061017d60048036038101906101789190610de6565b6105dd565b005b34801561018b57600080fd5b50610194610772565b6040516101a191906111cc565b60405180910390f35b3480156101b657600080fd5b506101d160048036038101906101cc9190610e33565b61078c565b6040516101df9291906110a7565b60405180910390f35b3480156101f457600080fd5b506101fd610874565b60405161020a919061117b565b60405180910390f35b34801561021f57600080fd5b50610228610879565b6040516102359190611196565b60405180910390f35b34801561024a57600080fd5b5061025361089d565b604051610260919061117b565b60405180910390f35b34801561027557600080fd5b5061027e6108a2565b60405161028b9190611196565b60405180910390f35b3480156102a057600080fd5b506102a96108c6565b6040516102b69190611048565b60405180910390f35b3480156102cb57600080fd5b506102d46108ec565b6040516102e191906110d7565b60405180910390f35b3480156102f657600080fd5b50610311600480360381019061030c9190610e7c565b6108f2565b60405161031e9190611063565b60405180910390f35b34801561033357600080fd5b5061033c610931565b6040516103499190611145565b60405180910390f35b34801561035e57600080fd5b50610367610955565b6040516103749190611160565b60405180910390f35b34801561038957600080fd5b50610392610968565b60405161039f91906111b1565b60405180910390f35b7f000000000000000000000000000000000000000000000000000000000000000073ffffffffffffffffffffffffffffffffffffffff163373ffffffffffffffffffffffffffffffffffffffff161461045a57337f00000000000000000000000000000000000000000000000000000000000000006040517f1cf993f400000000000000000000000000000000000000000000000000000000815260040161045192919061107e565b60405180910390fd5b610464828261097e565b5050565b7f00000000000000000000000000000000000000000000000000000000000000003410156104c2576040517f3038c00a00000000000000000000000000000000000000000000000000000000815260040160405180910390fd5b600060018111156104d6576104d56114c9565b5b6004600c9054906101000a900460ff1660018111156104f8576104f76114c9565b5b1461052f576040517fd24a271400000000000000000000000000000000000000000000000000000000815260040160405180910390fd5b6001339080600181540180825580915050600190039060005260206000200160009091909190916101000a81548173ffffffffffffffffffffffffffffffffffffffff021916908373ffffffffffffffffffffffffffffffffffffffff1602179055503373ffffffffffffffffffffffffffffffffffffffff167f0805e1d667bddb8a95f0f09880cf94f403fb596ce79928d9f29b74203ba284d460405160405180910390a2565b60005481565b60006105f76040518060200160405280600081525061078c565b50905080610631576040517f8e4bc81700000000000000000000000000000000000000000000000000000000815260040160405180910390fd5b60016004600c6101000a81548160ff02191690836001811115610657576106566114c9565b5b021790555060007f000000000000000000000000000000000000000000000000000000000000000073ffffffffffffffffffffffffffffffffffffffff16635d3b1d30600354600460009054906101000a900467ffffffffffffffff166003600460089054906101000a900463ffffffff1660016040518663ffffffff1660e01b81526004016106eb9594939291906110f2565b602060405180830381600087803b15801561070557600080fd5b505af1158015610719573d6000803e3d6000fd5b505050506040513d601f19601f8201168201806040525081019061073d9190610ea9565b9050807fde6349b018d6c03d837b67d9a198a6ba4842546f2295fe963fae141e5dbaef8160405160405180910390a250505050565b600460009054906101000a900467ffffffffffffffff1681565b6000606060006004600c9054906101000a900460ff1660018111156107b4576107b36114c9565b5b600060018111156107c8576107c76114c9565b5b14905060007f0000000000000000000000000000000000000000000000000000000000000000600054426107fc9190611290565b1190506000804711905060008060018054905011905082801561081c5750835b80156108255750815b801561082e5750805b9550856040518060400160405280600381526020017f30783000000000000000000000000000000000000000000000000000000000008152509550955050505050915091565b600381565b7f000000000000000000000000000000000000000000000000000000000000000081565b600181565b7f000000000000000000000000000000000000000000000000000000000000000081565b600260009054906101000a900473ffffffffffffffffffffffffffffffffffffffff1681565b60035481565b6001818154811061090257600080fd5b906000526020600020016000915054906101000a900473ffffffffffffffffffffffffffffffffffffffff1681565b7f000000000000000000000000000000000000000000000000000000000000000081565b6004600c9054906101000a900460ff1681565b600460089054906101000a900463ffffffff1681565b60006001805490508260008151811061099a576109996114f8565b5b60200260200101516109ac919061143a565b90506000600182815481106109c4576109c36114f8565b5b9060005260206000200160009054906101000a900473ffffffffffffffffffffffffffffffffffffffff16905080600260006101000a81548173ffffffffffffffffffffffffffffffffffffffff021916908373ffffffffffffffffffffffffffffffffffffffff160217905550600067ffffffffffffffff811115610a4d57610a4c611527565b5b604051908082528060200260200182016040528015610a7b5781602001602082028036833780820191505090505b5060019080519060200190610a91929190610bb1565b5060006004600c6101000a81548160ff02191690836001811115610ab857610ab76114c9565b5b02179055504260008190555060008173ffffffffffffffffffffffffffffffffffffffff1647604051610aea90611033565b60006040518083038185875af1925050503d8060008114610b27576040519150601f19603f3d011682016040523d82523d6000602084013e610b2c565b606091505b5050905080610b67576040517fa1d04b3900000000000000000000000000000000000000000000000000000000815260040160405180910390fd5b8173ffffffffffffffffffffffffffffffffffffffff167f5b690ec4a06fe979403046eaeea5b3ce38524683c3001f662c8b5a829632f7df60405160405180910390a25050505050565b828054828255906000526020600020908101928215610c2a579160200282015b82811115610c295782518260006101000a81548173ffffffffffffffffffffffffffffffffffffffff021916908373ffffffffffffffffffffffffffffffffffffffff16021790555091602001919060010190610bd1565b5b509050610c379190610c3b565b5090565b5b80821115610c54576000816000905550600101610c3c565b5090565b6000610c6b610c668461120c565b6111e7565b90508083825260208201905082856020860282011115610c8e57610c8d611560565b5b60005b85811015610cbe5781610ca48882610dbc565b845260208401935060208301925050600181019050610c91565b5050509392505050565b6000610cdb610cd684611238565b6111e7565b905082815260208101848484011115610cf757610cf6611565565b5b610d028482856113c7565b509392505050565b600082601f830112610d1f57610d1e61155b565b5b8135610d2f848260208601610c58565b91505092915050565b60008083601f840112610d4e57610d4d61155b565b5b8235905067ffffffffffffffff811115610d6b57610d6a611556565b5b602083019150836001820283011115610d8757610d86611560565b5b9250929050565b600082601f830112610da357610da261155b565b5b8135610db3848260208601610cc8565b91505092915050565b600081359050610dcb8161159c565b92915050565b600081519050610de08161159c565b92915050565b60008060208385031215610dfd57610dfc61156f565b5b600083013567ffffffffffffffff811115610e1b57610e1a61156a565b5b610e2785828601610d38565b92509250509250929050565b600060208284031215610e4957610e4861156f565b5b600082013567ffffffffffffffff811115610e6757610e6661156a565b5b610e7384828501610d8e565b91505092915050565b600060208284031215610e9257610e9161156f565b5b6000610ea084828501610dbc565b91505092915050565b600060208284031215610ebf57610ebe61156f565b5b6000610ecd84828501610dd1565b91505092915050565b60008060408385031215610eed57610eec61156f565b5b6000610efb85828601610dbc565b925050602083013567ffffffffffffffff811115610f1c57610f1b61156a565b5b610f2885828601610d0a565b9150509250929050565b610f3b816112d6565b82525050565b610f4a816112c4565b82525050565b610f59816112e8565b82525050565b610f68816112f4565b82525050565b6000610f7982611269565b610f838185611274565b9350610f938185602086016113d6565b610f9c81611574565b840191505092915050565b610fb08161136d565b82525050565b610fbf8161137f565b82525050565b6000610fd2600083611285565b9150610fdd82611585565b600082019050919050565b610ff181611311565b82525050565b611000816113b5565b82525050565b61100f8161133f565b82525050565b61101e81611349565b82525050565b61102d81611359565b82525050565b600061103e82610fc5565b9150819050919050565b600060208201905061105d6000830184610f41565b92915050565b60006020820190506110786000830184610f32565b92915050565b60006040820190506110936000830185610f41565b6110a06020830184610f41565b9392505050565b60006040820190506110bc6000830185610f50565b81810360208301526110ce8184610f6e565b90509392505050565b60006020820190506110ec6000830184610f5f565b92915050565b600060a0820190506111076000830188610f5f565b6111146020830187611024565b6111216040830186610fe8565b61112e6060830185611015565b61113b6080830184610ff7565b9695505050505050565b600060208201905061115a6000830184610fa7565b92915050565b60006020820190506111756000830184610fb6565b92915050565b60006020820190506111906000830184610fe8565b92915050565b60006020820190506111ab6000830184611006565b92915050565b60006020820190506111c66000830184611015565b92915050565b60006020820190506111e16000830184611024565b92915050565b60006111f1611202565b90506111fd8282611409565b919050565b6000604051905090565b600067ffffffffffffffff82111561122757611226611527565b5b602082029050602081019050919050565b600067ffffffffffffffff82111561125357611252611527565b5b61125c82611574565b9050602081019050919050565b600081519050919050565b600082825260208201905092915050565b600081905092915050565b600061129b8261133f565b91506112a68361133f565b9250828210156112b9576112b861146b565b5b828203905092915050565b60006112cf8261131f565b9050919050565b60006112e18261131f565b9050919050565b60008115159050919050565b6000819050919050565b600081905061130c82611588565b919050565b600061ffff82169050919050565b600073ffffffffffffffffffffffffffffffffffffffff82169050919050565b6000819050919050565b600063ffffffff82169050919050565b600067ffffffffffffffff82169050919050565b600061137882611391565b9050919050565b600061138a826112fe565b9050919050565b600061139c826113a3565b9050919050565b60006113ae8261131f565b9050919050565b60006113c082611311565b9050919050565b82818337600083830152505050565b60005b838110156113f45780820151818401526020810190506113d9565b83811115611403576000848401525b50505050565b61141282611574565b810181811067ffffffffffffffff8211171561143157611430611527565b5b80604052505050565b60006114458261133f565b91506114508361133f565b9250826114605761145f61149a565b5b828206905092915050565b7f4e487b7100000000000000000000000000000000000000000000000000000000600052601160045260246000fd5b7f4e487b7100000000000000000000000000000000000000000000000000000000600052601260045260246000fd5b7f4e487b7100000000000000000000000000000000000000000000000000000000600052602160045260246000fd5b7f4e487b7100000000000000000000000000000000000000000000000000000000600052603260045260246000fd5b7f4e487b7100000000000000000000000000000000000000000000000000000000600052604160045260246000fd5b600080fd5b600080fd5b600080fd5b600080fd5b600080fd5b600080fd5b6000601f19601f8301169050919050565b50565b60028110611599576115986114c9565b5b50565b6115a58161133f565b81146115b057600080fd5b5056fea26469706673582212204f67385d44c48f61135092c0277effe8009806f647a90b243c4f8c5093b7487f64736f6c63430008070033",
  "linkReferences": {},
  "deployedLinkReferences": {}
}